:1000000071C0000086C0000084C0000082C00000F3
:1000100080C000007EC000007CC000007AC00000EC
:1000200078C0000076C0000074C0000072C00000FC
:1000300070C000006EC000006CC000006AC000000C
:1000400068C0000066C0000064C0000062C000001C
:1000500060C000005EC000005CC000005AC000002C
:1000600058C0000056C0000054C0000052C000003C
:1000700050C000004EC000004CC000004AC000004C
:1000800048C0000046C0000044C0000042C000005C
:1000900040C000003EC000003CC000003AC000006C
:1000A00038C0000036C0000034C0000032C000007C
:1000B00030C000002EC000002CC000002AC000008C
:1000C00028C0000026C0000024C0000022C000009C
:1000D00020C000001EC000001CC000001AC00000AC
:1000E00018C0000011241FBECFEFD1E2DEBFCDBF8C
:1000F00000E00CBF12E0A0E0B2E0E4E1F7E000E0D5
:100100000BBF02C007900D92AC31B107D9F79FD257
:10011000FFC276CF2A9A00C02A980895CF93C82F9D
:10012000662311F0289A01C028982998249A259AC4
:10013000269A279A2F982E982D982C98CC230CF439
:100140002F9AC6FD2E9AC5FD2D9AC4FD2C9AE2DF8A
:100150002F982E982D982C98C3FD2F9AC2FD2E9A79
:10016000C1FD2D9AC0FD2C9AD5DF2C9A2D9A2E9A7E
:100170002F9ACF910895882311F0289A01C02898CA
:10018000299A24982598269827982A9A00C01C9B7B
:1001900002C080E101C080E01D9980621E998064E8
:1001A0001F9980682A9800C02A9A00C01C99816013
:1001B0001D9982601E9984601F9988602A9808950D
:1001C00080E0D9DF8823E4F388E090E00197F1F73D
:1001D00080E0D1CF0895CF93C82FF2DF60E08C2F5D
:1001E0009DDFCF91089581E0F6CF089582E0F3CFAF
:1001F0000895CF93C82FE4DFCA3041F4803410F063
:1002000080E001C080E48058E6DF03C061E08C2F0D
:1002100085DFCF910895CF93DF93EC012196FC0108
:100220008081882321F0E5DF89918111FCCFDF9166
:10023000CF9108951F93CF93DF93182F209A219A7F
:10024000229A249A259A269A279A80E09AEF019773
:10025000F1F72D9A2C9A5EDF80E09EE40197F1F78A
:1002600059DFC0E0D1E0CE010197F1F753DFCE01B5
:100270000197F1F72C984EDF2197F1F788E2ABDF79
:1002800088E0A9DF86E0A7DF812FA5DFDF91CF918E
:100290001F910895389A399A3A9A3B9A3C983D981A
:1002A0003E983F98449A459A469A479A409A419A6E
:1002B000429A439A0895811105C04098419A429A02
:1002C000439A0EC0813029F4409A4198429A439A49
:1002D0000895823029F4409A419A4298439A0895A9
:1002E000833021F4409A419A429A43980895409A63
:1002F000419A429A439A0895CF9380E0DCDF2FEF32
:1003000081EE94E0215080409040E1F700C0000071
:1003100036B146B196B126B150E04F6D5F6F409552
:1003200050955595479555954795559547955595AC
:10033000479555954795440F551F892F90E08F6B32
:100340009F6F80959095082E892F000C881F990B20
:10035000000C881F991F880F991F880F991F482B21
:10036000592B832F90E08F6E9F6F80959095959578
:100370008795959587959595879595958795842BE0
:10038000952B30E02F673F6F20953095220F232F5C
:10039000221F330B220F331F220F331F220F331F55
:1003A000822B932B8230910561F01CF4019739F078
:1003B0000EC08430910539F0089739F008C0C1E3C8
:1003C00007C0C4E305C0C7E303C0CAE201C0C0E080
:1003D00081E071DF2FEF81EE94E02150804090406A
:1003E000E1F700C0000036B146B196B126B150E049
:1003F0004F6D5F6F4095509555954795559547952D
:10040000559547955595479555954795440F551FD3
:10041000892F90E08F6B9F6F80959095082E892F84
:10042000000C881F990B000C881F991F880F991FBB
:10043000880F991F482B592B832F90E08F6E9F6F49
:1004400080959095959587959595879595958795A0
:1004500095958795842B952B30E02F673F6F2095DE
:100460003095220F232F221F330B220F331F220F11
:10047000331F220F331F822B932B8230910561F0A3
:100480001CF4019739F00DC08430910539F00897BC
:1004900039F007C0C2E305C0C5E303C0C8E301C02B
:1004A000C0E382E008DF2FEF81EE94E0215080402E
:1004B0009040E1F700C0000036B146B196B126B1D8
:1004C00050E04F6D5F6F4095509555954795559508
:1004D0004795559547955595479555954795440F9B
:1004E000551F892F90E08F6B9F6F80959095082EF8
:1004F000892F000C881F990B000C881F991F880FEB
:10050000991F880F991F482B592B832F90E08F6ECE
:100510009F6F8095909595958795959587959595DD
:10052000879595958795842B952B30E02F673F6FA6
:1005300020953095220F232F221F330B220F331FBC
:10054000220F331F220F331F822B932B82309105F2
:1005500061F01CF4019739F00DC08430910539F039
:10056000089739F007C0C3E305C0C6E303C0C9E379
:1005700001C0C3E283E09FDE2FEF81EE94E02150C3
:1005800080409040E1F700C0000036B146B196B11E
:1005900026B150E04F6D5F6F40955095559547954A
:1005A0005595479555954795559547955595479533
:1005B000440F551F892F90E08F6B9F6F809590950A
:1005C000082E892F000C881F990B000C881F991F7B
:1005D000880F991F880F991F482B592B832F90E064
:1005E0008F6E9F6F8095909595958795959587953A
:1005F0009595879595958795842B952B30E02F675A
:100600003F6F20953095220F232F221F330B220F8F
:10061000331F220F331F220F331F822B932B823065
:10062000910561F01CF4019739F00DC084309105FB
:1006300039F0089739F007C0CFE205C0C8E503C01C
:10064000CDE201C0CBE253DE8C2FCF910895CF9342
:10065000DF9300D01F92CDB7DEB78CE0EBDD1ADE62
:10066000C5DDC1DD80E092E0D6DD2FEF80E792E0CE
:10067000215080409040E1F700C0000080E390E30B
:100680009A8389839C838B83FE0131967F0100ECE2
:1006900033DE182F8823E1F3802F9DDD812FA9DD24
:1006A000F70111937F010F5F033C91F7898181333B
:1006B000A1F48A81823389F48B81833371F493DDD1
:1006C00082E192E0A8DDFFEF21EE84E0F1502040CE
:1006D0008040E1F700C000000DC085DD80E192E0C0
:1006E0009ADD9FEFE1EEF4E09150E040F040E1F759
:1006F00000C0000078DD80E092E08DDD2FEF80E724
:1007000092E0215080409040E1F700C00000BCCF53
:04071000F894FFCF8B
:10071400494E475245534520434C4156453A2000E3
:0C072400494E434F52524543544F0000D1
:00000001FF
